{
  "abi": [
    {
      "inputs": [
        {
          "components": [
            {
              "internalType": "address",
              "name": "token0",
              "type": "address"
            },
            {
              "internalType": "address",
              "name": "token1",
              "type": "address"
            },
            {
              "internalType": "uint24",
              "name": "fee1",
              "type": "uint24"
            },
            {
              "internalType": "uint256",
              "name": "amount0",
              "type": "uint256"
            },
            {
              "internalType": "uint256",
              "name": "amount1",
              "type": "uint256"
            },
            {
              "internalType": "uint24",
              "name": "fee2",
              "type": "uint24"
            },
            {
              "internalType": "uint24",
              "name": "fee3",
              "type": "uint24"
            }
          ],
          "internalType": "struct Arbitrage.FlashParams",
          "name": "params",
          "type": "tuple"
        }
      ],
      "name": "initFlash",
      "outputs": [],
      "stateMutability": "nonpayable",
      "type": "function"
    },
    {
      "inputs": [],
      "name": "swap",
      "outputs": [],
      "stateMutability": "nonpayable",
      "type": "function"
    },
    {
      "inputs": [
        {
          "internalType": "uint256",
          "name": "fee0",
          "type": "uint256"
        },
        {
          "internalType": "uint256",
          "name": "fee1",
          "type": "uint256"
        },
        {
          "internalType": "bytes",
          "name": "data",
          "type": "bytes"
        }
      ],
      "name": "uniswapV3FlashCallback",
      "outputs": [],
      "stateMutability": "nonpayable",
      "type": "function"
    }
  ],
  "bytecode": {
    "object": "0x608060405234801561001057600080fd5b506107f3806100206000396000f3fe608060405234801561001057600080fd5b50600436106100415760003560e01c80632384463b146100465780638119c0651461005b578063e9cbafb014610063575b600080fd5b61005961005436600461055d565b610076565b005b6100596101b9565b61005961007136600461060d565b6102b6565b6000604051806060016040528083600001516001600160a01b0316815260200183602001516001600160a01b03168152602001836040015162ffffff16815250905060006100d8731f98431c8ad98523631ae4a59f267346ea31f9848361039d565b9050806001600160a01b031663490e6cbc30856060015186608001516040518060c001604052808960600151815260200189608001518152602001336001600160a01b031681526020018881526020018960a0015162ffffff1681526020018960c0015162ffffff16815250604051602001610154919061068d565b6040516020818303038152906040526040518563ffffffff1660e01b81526004016101829493929190610753565b600060405180830381600087803b15801561019c57600080fd5b505af11580156101b0573d6000803e3d6000fd5b50505050505050565b6040805160e081018252736b175474e89094c44da98b954eedeac495271d0f815273a0b86991c6218b36c1d19d4a2e9eb0ce3606eb48602082019081526101f4828401818152600a606085018181526080860191825260a08601938452600060c087019081529651632384463b60e01b815286516001600160a01b03908116600483015295519095166024860152915162ffffff9081166044860152915160648501525160848401529051811660a4830152925190921660c4830152903090632384463b9060e401600060405180830381600087803b15801561029b57600080fd5b505af11580156102af573d6000803e3d6000fd5b5050505050565b6102df6040518060400160405280600881526020016763616c6c6261636b60c01b815250610486565b6040516370a0823160e01b815230600482015261035c90736b175474e89094c44da98b954eedeac495271d0f906370a08231906024015b602060405180830381865afa158015610333573d6000803e3d6000fd5b505050506040513d601f19601f82011682018060405250810190610357919061078a565b6104cc565b6040516370a0823160e01b81523060048201526103979073a0b86991c6218b36c1d19d4a2e9eb0ce3606eb48906370a0823190602401610316565b50505050565b600081602001516001600160a01b031682600001516001600160a01b0316106103c557600080fd5b815160208084015160408086015181516001600160a01b0395861681860152949092168482015262ffffff90911660608085019190915281518085038201815260808501909252815191909201206001600160f81b031960a08401529085901b6bffffffffffffffffffffffff191660a183015260b58201527fe34f199b19b2b4f47f68442619d555527d244f78a3297ea89325f843f87b8b5460d582015260f50160408051601f1981840301815291905280516020909101209392505050565b6104c98160405160240161049a91906107a3565b60408051601f198184030181529190526020810180516001600160e01b031663104c13eb60e21b17905261050d565b50565b6104c9816040516024016104e291815260200190565b60408051601f198184030181529190526020810180516001600160e01b031663f5b1bba960e01b1790525b80516a636f6e736f6c652e6c6f67602083016000808483855afa5050505050565b80356001600160a01b038116811461054557600080fd5b919050565b803562ffffff8116811461054557600080fd5b600060e0828403121561056f57600080fd5b60405160e0810181811067ffffffffffffffff821117156105a057634e487b7160e01b600052604160045260246000fd5b6040526105ac8361052e565b81526105ba6020840161052e565b60208201526105cb6040840161054a565b604082015260608301356060820152608083013560808201526105f060a0840161054a565b60a082015261060160c0840161054a565b60c08201529392505050565b6000806000806060858703121561062357600080fd5b8435935060208501359250604085013567ffffffffffffffff8082111561064957600080fd5b818701915087601f83011261065d57600080fd5b81358181111561066c57600080fd5b88602082850101111561067e57600080fd5b95989497505060200194505050565b81518152602080830151818301526040808401516001600160a01b03908116828501526060808601518051831691860191909152928301511660808085019190915291015162ffffff1660a08301528201516101008201906106f660c084018262ffffff169052565b5060a0929092015162ffffff1660e0919091015290565b6000815180845260005b8181101561073357602081850181015186830182015201610717565b506000602082860101526020601f19601f83011685010191505092915050565b60018060a01b0385168152836020820152826040820152608060608201526000610780608083018461070d565b9695505050505050565b60006020828403121561079c57600080fd5b5051919050565b6020815260006107b6602083018461070d565b939250505056fea26469706673582212202c1d864f79b35e55b424fc6861ff793e643d7e3b337967d8c2dc70a42f506dd164736f6c63430008110033",
    "linkReferences": {}
  },
  "methodIdentifiers": {
    "initFlash((address,address,uint24,uint256,uint256,uint24,uint24))": "2384463b",
    "swap()": "8119c065",
    "uniswapV3FlashCallback(uint256,uint256,bytes)": "e9cbafb0"
  },
  "id": 25
}